{
    "_format": "hh-sol-artifact-1",
    "contractName": "MedicalChainPayments",
    "sourceName": "contracts/MedicalChainPayments.sol",
    "abi": [
        {
            "inputs": [],
            "stateMutability": "nonpayable",
            "type": "constructor"
        },
        {
            "anonymous": false,
            "inputs": [
                {
                    "indexed": true,
                    "internalType": "address",
                    "name": "depositor",
                    "type": "address"
                },
                {
                    "indexed": false,
                    "internalType": "uint256",
                    "name": "amount",
                    "type": "uint256"
                }
            ],
            "name": "BalanceDeposited",
            "type": "event"
        },
        {
            "anonymous": false,
            "inputs": [
                {
                    "indexed": true,
                    "internalType": "uint256",
                    "name": "requestId",
                    "type": "uint256"
                },
                {
                    "indexed": true,
                    "internalType": "address",
                    "name": "confirmer",
                    "type": "address"
                }
            ],
            "name": "PaymentConfirmed",
            "type": "event"
        },
        {
            "anonymous": false,
            "inputs": [
                {
                    "indexed": true,
                    "internalType": "uint256",
                    "name": "requestId",
                    "type": "uint256"
                },
                {
                    "indexed": true,
                    "internalType": "address",
                    "name": "recipient",
                    "type": "address"
                },
                {
                    "indexed": false,
                    "internalType": "uint256",
                    "name": "amount",
                    "type": "uint256"
                }
            ],
            "name": "PaymentExecuted",
            "type": "event"
        },
        {
            "anonymous": false,
            "inputs": [
                {
                    "indexed": true,
                    "internalType": "uint256",
                    "name": "requestId",
                    "type": "uint256"
                },
                {
                    "indexed": true,
                    "internalType": "address",
                    "name": "recipient",
                    "type": "address"
                },
                {
                    "indexed": false,
                    "internalType": "uint256",
                    "name": "amount",
                    "type": "uint256"
                }
            ],
            "name": "PaymentRequestCreated",
            "type": "event"
        },
        {
            "anonymous": false,
            "inputs": [
                {
                    "indexed": true,
                    "internalType": "bytes32",
                    "name": "role",
                    "type": "bytes32"
                },
                {
                    "indexed": true,
                    "internalType": "bytes32",
                    "name": "previousAdminRole",
                    "type": "bytes32"
                },
                {
                    "indexed": true,
                    "internalType": "bytes32",
                    "name": "newAdminRole",
                    "type": "bytes32"
                }
            ],
            "name": "RoleAdminChanged",
            "type": "event"
        },
        {
            "anonymous": false,
            "inputs": [
                {
                    "indexed": true,
                    "internalType": "bytes32",
                    "name": "role",
                    "type": "bytes32"
                },
                {
                    "indexed": true,
                    "internalType": "address",
                    "name": "account",
                    "type": "address"
                },
                {
                    "indexed": true,
                    "internalType": "address",
                    "name": "sender",
                    "type": "address"
                }
            ],
            "name": "RoleGranted",
            "type": "event"
        },
        {
            "anonymous": false,
            "inputs": [
                {
                    "indexed": true,
                    "internalType": "bytes32",
                    "name": "role",
                    "type": "bytes32"
                },
                {
                    "indexed": true,
                    "internalType": "address",
                    "name": "account",
                    "type": "address"
                },
                {
                    "indexed": true,
                    "internalType": "address",
                    "name": "sender",
                    "type": "address"
                }
            ],
            "name": "RoleRevoked",
            "type": "event"
        },
        {
            "stateMutability": "payable",
            "type": "fallback"
        },
        {
            "inputs": [],
            "name": "DEFAULT_ADMIN_ROLE",
            "outputs": [
                {
                    "internalType": "bytes32",
                    "name": "",
                    "type": "bytes32"
                }
            ],
            "stateMutability": "view",
            "type": "function"
        },
        {
            "inputs": [],
            "name": "PAYMENT_ADMIN_ROLE",
            "outputs": [
                {
                    "internalType": "bytes32",
                    "name": "",
                    "type": "bytes32"
                }
            ],
            "stateMutability": "view",
            "type": "function"
        },
        {
            "inputs": [],
            "name": "SUPER_ADMIN_ROLE",
            "outputs": [
                {
                    "internalType": "bytes32",
                    "name": "",
                    "type": "bytes32"
                }
            ],
            "stateMutability": "view",
            "type": "function"
        },
        {
            "inputs": [
                {
                    "internalType": "uint256",
                    "name": "requestId",
                    "type": "uint256"
                }
            ],
            "name": "confirmPayment",
            "outputs": [],
            "stateMutability": "nonpayable",
            "type": "function"
        },
        {
            "inputs": [
                {
                    "internalType": "address",
                    "name": "recipient",
                    "type": "address"
                },
                {
                    "internalType": "uint256",
                    "name": "amount",
                    "type": "uint256"
                }
            ],
            "name": "createPaymentRequest",
            "outputs": [
                {
                    "internalType": "uint256",
                    "name": "",
                    "type": "uint256"
                }
            ],
            "stateMutability": "nonpayable",
            "type": "function"
        },
        {
            "inputs": [],
            "name": "deposit",
            "outputs": [],
            "stateMutability": "payable",
            "type": "function"
        },
        {
            "inputs": [
                {
                    "internalType": "address",
                    "name": "user",
                    "type": "address"
                }
            ],
            "name": "getBalance",
            "outputs": [
                {
                    "internalType": "uint256",
                    "name": "",
                    "type": "uint256"
                }
            ],
            "stateMutability": "view",
            "type": "function"
        },
        {
            "inputs": [
                {
                    "internalType": "uint256",
                    "name": "requestId",
                    "type": "uint256"
                }
            ],
            "name": "getRequestDetails",
            "outputs": [
                {
                    "internalType": "address",
                    "name": "recipient",
                    "type": "address"
                },
                {
                    "internalType": "uint256",
                    "name": "amount",
                    "type": "uint256"
                },
                {
                    "internalType": "uint256",
                    "name": "confirmations",
                    "type": "uint256"
                },
                {
                    "internalType": "bool",
                    "name": "executed",
                    "type": "bool"
                },
                {
                    "internalType": "uint256",
                    "name": "timestamp",
                    "type": "uint256"
                }
            ],
            "stateMutability": "view",
            "type": "function"
        },
        {
            "inputs": [
                {
                    "internalType": "bytes32",
                    "name": "role",
                    "type": "bytes32"
                }
            ],
            "name": "getRoleAdmin",
            "outputs": [
                {
                    "internalType": "bytes32",
                    "name": "",
                    "type": "bytes32"
                }
            ],
            "stateMutability": "view",
            "type": "function"
        },
        {
            "inputs": [
                {
                    "internalType": "bytes32",
                    "name": "role",
                    "type": "bytes32"
                },
                {
                    "internalType": "address",
                    "name": "account",
                    "type": "address"
                }
            ],
            "name": "grantRole",
            "outputs": [],
            "stateMutability": "nonpayable",
            "type": "function"
        },
        {
            "inputs": [
                {
                    "internalType": "bytes32",
                    "name": "role",
                    "type": "bytes32"
                },
                {
                    "internalType": "address",
                    "name": "account",
                    "type": "address"
                }
            ],
            "name": "hasRole",
            "outputs": [
                {
                    "internalType": "bool",
                    "name": "",
                    "type": "bool"
                }
            ],
            "stateMutability": "view",
            "type": "function"
        },
        {
            "inputs": [
                {
                    "internalType": "bytes32",
                    "name": "role",
                    "type": "bytes32"
                },
                {
                    "internalType": "address",
                    "name": "account",
                    "type": "address"
                }
            ],
            "name": "renounceRole",
            "outputs": [],
            "stateMutability": "nonpayable",
            "type": "function"
        },
        {
            "inputs": [],
            "name": "requestCount",
            "outputs": [
                {
                    "internalType": "uint256",
                    "name": "",
                    "type": "uint256"
                }
            ],
            "stateMutability": "view",
            "type": "function"
        },
        {
            "inputs": [],
            "name": "requiredConfirmations",
            "outputs": [
                {
                    "internalType": "uint256",
                    "name": "",
                    "type": "uint256"
                }
            ],
            "stateMutability": "view",
            "type": "function"
        },
        {
            "inputs": [
                {
                    "internalType": "bytes32",
                    "name": "role",
                    "type": "bytes32"
                },
                {
                    "internalType": "address",
                    "name": "account",
                    "type": "address"
                }
            ],
            "name": "revokeRole",
            "outputs": [],
            "stateMutability": "nonpayable",
            "type": "function"
        },
        {
            "inputs": [
                {
                    "internalType": "uint256",
                    "name": "newRequiredConfirmations",
                    "type": "uint256"
                }
            ],
            "name": "setRequiredConfirmations",
            "outputs": [],
            "stateMutability": "nonpayable",
            "type": "function"
        },
        {
            "inputs": [
                {
                    "internalType": "bytes4",
                    "name": "interfaceId",
                    "type": "bytes4"
                }
            ],
            "name": "supportsInterface",
            "outputs": [
                {
                    "internalType": "bool",
                    "name": "",
                    "type": "bool"
                }
            ],
            "stateMutability": "view",
            "type": "function"
        },
        {
            "stateMutability": "payable",
            "type": "receive"
        }
    ],
    "bytecode": "0x60806040526002805534801561001457600080fd5b50600160005561003260008051602061133a83398151915233610099565b61005c7f4a76dea3a6231aa5446f85ecde36fb499385f0f3539e800a138fb9855200db6733610099565b6100947f4a76dea3a6231aa5446f85ecde36fb499385f0f3539e800a138fb9855200db6760008051602061133a833981519152610121565b61016e565b60008281526001602090815260408083206001600160a01b038516845290915290205460ff1661011d5760008281526001602081815260408084206001600160a01b0386168086529252808420805460ff19169093179092559051339285917f2f8788117e7eff1d82e926ec794901d17c78024a50270940304540a733656f0d9190a45b5050565b6000828152600160208190526040808320909101805490849055905190918391839186917fbd79b86ffe0ab8e8776151514217cd7cacd52c909f66475c3af44e129f0b00ff9190a4505050565b6111bd8061017d6000396000f3fe6080604052600436106101025760003560e01c8063876ca09f11610095578063b24b56b011610064578063b24b56b014610352578063d0e30db014610386578063d547741f1461038e578063f34d4c63146103ae578063f8b2cb4f1461040257610162565b8063876ca09f146102dd57806391d14854146102fd578063a217fddf1461031d578063a928c1bc1461033257610162565b80634460bdd6116100d15780634460bdd61461025d5780635badbe4c146102915780637b7c343d146102a757806382e717f7146102c757610162565b806301ffc9a7146101a7578063248a9ca3146101dc5780632f2ff15d1461021b57806336568abe1461023d57610162565b36610162573360009081526005602052604081208054349290610126908490610f65565b909155505060405134815233907f35127daa9a364433b8c0088167a66055c055f07c5aca9b104d84c51bd7a367de9060200160405180910390a2005b60405162461bcd60e51b8152602060048201526015602482015274125b9d985b1a5908199d5b98dd1a5bdb8818d85b1b605a1b60448201526064015b60405180910390fd5b3480156101b357600080fd5b506101c76101c2366004610f78565b610438565b60405190151581526020015b60405180910390f35b3480156101e857600080fd5b5061020d6101f7366004610fa2565b6000908152600160208190526040909120015490565b6040519081526020016101d3565b34801561022757600080fd5b5061023b610236366004610fd7565b61046f565b005b34801561024957600080fd5b5061023b610258366004610fd7565b61049a565b34801561026957600080fd5b5061020d7f7613a25ecc738585a232ad50a301178f12b3ba8887d13e138b523c4269c4768981565b34801561029d57600080fd5b5061020d60035481565b3480156102b357600080fd5b5061023b6102c2366004610fa2565b610518565b3480156102d357600080fd5b5061020d60025481565b3480156102e957600080fd5b5061023b6102f8366004610fa2565b610598565b34801561030957600080fd5b506101c7610318366004610fd7565b610713565b34801561032957600080fd5b5061020d600081565b34801561033e57600080fd5b5061020d61034d366004611003565b61073e565b34801561035e57600080fd5b5061020d7f4a76dea3a6231aa5446f85ecde36fb499385f0f3539e800a138fb9855200db6781565b61023b61089e565b34801561039a57600080fd5b5061023b6103a9366004610fd7565b610949565b3480156103ba57600080fd5b506103ce6103c9366004610fa2565b61096f565b604080516001600160a01b03909616865260208601949094529284019190915215156060830152608082015260a0016101d3565b34801561040e57600080fd5b5061020d61041d36600461102d565b6001600160a01b031660009081526005602052604090205490565b60006001600160e01b03198216637965db0b60e01b148061046957506301ffc9a760e01b6001600160e01b03198316145b92915050565b6000828152600160208190526040909120015461048b816109c3565b61049583836109d0565b505050565b6001600160a01b038116331461050a5760405162461bcd60e51b815260206004820152602f60248201527f416363657373436f6e74726f6c3a2063616e206f6e6c792072656e6f756e636560448201526e103937b632b9903337b91039b2b63360891b606482015260840161019e565b6105148282610a3b565b5050565b7f7613a25ecc738585a232ad50a301178f12b3ba8887d13e138b523c4269c47689610542816109c3565b600082116105925760405162461bcd60e51b815260206004820181905260248201527f4174206c65617374203120636f6e6669726d6174696f6e207265717569726564604482015260640161019e565b50600255565b7f4a76dea3a6231aa5446f85ecde36fb499385f0f3539e800a138fb9855200db676105c2816109c3565b60035482106106085760405162461bcd60e51b8152602060048201526012602482015271125b9d985b1a59081c995c5d595cdd08125160721b604482015260640161019e565b60008281526004602081905260409091209081015460ff161561066d5760405162461bcd60e51b815260206004820152601860248201527f5061796d656e7420616c72656164792065786563757465640000000000000000604482015260640161019e565b61067a6002820133610aa2565b156106bb5760405162461bcd60e51b8152602060048201526011602482015270105b1c9958591e4818dbdb999a5c9b5959607a1b604482015260640161019e565b6106c86002820133610ac7565b50604051339084907f2bce41b08631cf63c2dfd0b519d88a1e3db7e906ba6f0234f853996915e0902890600090a360025461070582600201610adc565b106104955761049583610ae6565b60009182526001602090815260408084206001600160a01b0393909316845291905290205460ff1690565b60007f4a76dea3a6231aa5446f85ecde36fb499385f0f3539e800a138fb9855200db6761076a816109c3565b6001600160a01b0384166107c05760405162461bcd60e51b815260206004820152601960248201527f496e76616c696420726563697069656e74206164647265737300000000000000604482015260640161019e565b600083116108105760405162461bcd60e51b815260206004820152601760248201527f416d6f756e74206d75737420626520706f736974697665000000000000000000604482015260640161019e565b600380546000918261082183611048565b9091555060008181526004602090815260409182902080546001600160a01b0319166001600160a01b038a1690811782556001820189905542600583015592518881529394509284917f30ccd9965f9efdbfe9a28aa2e924e0d888f606d8e3966fe3562014f269d918d1910160405180910390a350949350505050565b600034116108ee5760405162461bcd60e51b815260206004820152601f60248201527f4465706f73697420616d6f756e74206d75737420626520706f73697469766500604482015260640161019e565b336000908152600560205260408120805434929061090d908490610f65565b909155505060405134815233907f35127daa9a364433b8c0088167a66055c055f07c5aca9b104d84c51bd7a367de9060200160405180910390a2565b60008281526001602081905260409091200154610965816109c3565b6104958383610a3b565b6000818152600460205260408120805460018201548392839283928392916001600160a01b0316906109a360028401610adc565b6004840154600590940154929a919950975060ff90921695509350915050565b6109cd8133610ca0565b50565b6109da8282610713565b6105145760008281526001602081815260408084206001600160a01b0386168086529252808420805460ff19169093179092559051339285917f2f8788117e7eff1d82e926ec794901d17c78024a50270940304540a733656f0d9190a45050565b610a458282610713565b156105145760008281526001602090815260408083206001600160a01b0385168085529252808320805460ff1916905551339285917ff6391f5c32d9c69d2a47ea670b442974b53935d1edc7fd64eb21e047a839171b9190a45050565b6001600160a01b038116600090815260018301602052604081205415155b9392505050565b6000610ac0836001600160a01b038416610cf9565b6000610469825490565b610aee610d48565b60008181526004602081905260409091209081015460ff1615610b465760405162461bcd60e51b815260206004820152601060248201526f105b1c9958591e48195e1958dd5d195960821b604482015260640161019e565b600254610b5582600201610adc565b1015610ba35760405162461bcd60e51b815260206004820152601a60248201527f496e73756666696369656e7420636f6e6669726d6174696f6e73000000000000604482015260640161019e565b60048101805460ff191660019081179091558154908201546040516000926001600160a01b031691908381818185875af1925050503d8060008114610c04576040519150601f19603f3d011682016040523d82523d6000602084013e610c09565b606091505b5050905080610c4c5760405162461bcd60e51b815260206004820152600f60248201526e151c985b9cd9995c8819985a5b1959608a1b604482015260640161019e565b815460018301546040519081526001600160a01b039091169084907f7f5bfe3018715b26a7067888a5c42912fbb3485170b8154ea9a448661f2f0de29060200160405180910390a350506109cd6001600055565b610caa8282610713565b61051457610cb781610da1565b610cc2836020610db3565b604051602001610cd3929190611085565b60408051601f198184030181529082905262461bcd60e51b825261019e916004016110fa565b6000818152600183016020526040812054610d4057508154600181810184556000848152602080822090930184905584548482528286019093526040902091909155610469565b506000610469565b600260005403610d9a5760405162461bcd60e51b815260206004820152601f60248201527f5265656e7472616e637947756172643a207265656e7472616e742063616c6c00604482015260640161019e565b6002600055565b60606104696001600160a01b03831660145b60606000610dc283600261112d565b610dcd906002610f65565b67ffffffffffffffff811115610de557610de5611144565b6040519080825280601f01601f191660200182016040528015610e0f576020820181803683370190505b509050600360fc1b81600081518110610e2a57610e2a61115a565b60200101906001600160f81b031916908160001a905350600f60fb1b81600181518110610e5957610e5961115a565b60200101906001600160f81b031916908160001a9053506000610e7d84600261112d565b610e88906001610f65565b90505b6001811115610f00576f181899199a1a9b1b9c1cb0b131b232b360811b85600f1660108110610ebc57610ebc61115a565b1a60f81b828281518110610ed257610ed261115a565b60200101906001600160f81b031916908160001a90535060049490941c93610ef981611170565b9050610e8b565b508315610ac05760405162461bcd60e51b815260206004820181905260248201527f537472696e67733a20686578206c656e67746820696e73756666696369656e74604482015260640161019e565b634e487b7160e01b600052601160045260246000fd5b8082018082111561046957610469610f4f565b600060208284031215610f8a57600080fd5b81356001600160e01b031981168114610ac057600080fd5b600060208284031215610fb457600080fd5b5035919050565b80356001600160a01b0381168114610fd257600080fd5b919050565b60008060408385031215610fea57600080fd5b82359150610ffa60208401610fbb565b90509250929050565b6000806040838503121561101657600080fd5b61101f83610fbb565b946020939093013593505050565b60006020828403121561103f57600080fd5b610ac082610fbb565b60006001820161105a5761105a610f4f565b5060010190565b60005b8381101561107c578181015183820152602001611064565b50506000910152565b7f416363657373436f6e74726f6c3a206163636f756e74200000000000000000008152600083516110bd816017850160208801611061565b7001034b99036b4b9b9b4b733903937b6329607d1b60179184019182015283516110ee816028840160208801611061565b01602801949350505050565b6020815260008251806020840152611119816040850160208701611061565b601f01601f19169190910160400192915050565b808202811582820484141761046957610469610f4f565b634e487b7160e01b600052604160045260246000fd5b634e487b7160e01b600052603260045260246000fd5b60008161117f5761117f610f4f565b50600019019056fea264697066735822122096a5962113152ca6312d841ecc6248ab2d26c929557ac1f67789803c62042e1864736f6c634300081a00337613a25ecc738585a232ad50a301178f12b3ba8887d13e138b523c4269c47689",
    "linkReferences": {},
    "deployedLinkReferences": {}
}